{
  "transactions": [
    {
      "hash": "0x66da892dbe42a27891c8da2db2d1035dd3b480ebceda64f169e31384f93ed905",
      "transactionType": "CREATE",
      "contractName": "PulseGuardMutualPool",
      "contractAddress": "0xc02d76bdf413ebd3bd1073d3636cf37977142bfd",
      "function": null,
      "arguments": null,
      "transaction": {
        "from": "0x82d1f6ebad6732065d6275b3d10b72df69da5591",
        "gas": "0xee6c6",
        "value": "0x0",
        "input": "0x6080604052348015600e575f5ffd5b505f80546001600160a01b03191633179055610c348061002d5f395ff3fe608060405234801561000f575f5ffd5b506004361061007a575f3560e01c80639d6f17a8116100585780639d6f17a8146100f3578063b42048f114610116578063f851a44014610129578063f9ef005b14610153575f5ffd5b80632e11d9f31461007e578063455e049c146100cb5780635ea81a32146100e0575b5f5ffd5b6100b861008c366004610760565b81516020818401810180516002825292820194820194909420919093529091525f908152604090205481565b6040519081526020015b60405180910390f35b6100de6100d93660046107e7565b610166565b005b6100de6100ee366004610834565b61027b565b6101066101013660046108a0565b6103d9565b6040516100c294939291906108da565b6100b8610124366004610926565b610497565b5f5461013b906001600160a01b031681565b6040516001600160a01b0390911681526020016100c2565b6100de610161366004610965565b61058c565b61016e610650565b600184846040516101809291906109ad565b9081526040519081900360200190206003015460ff166101bb5760405162461bcd60e51b81526004016101b2906109bc565b60405180910390fd5b80600185856040516101ce9291906109ad565b90815260200160405180910390206001015f8282546101ed91906109f7565b9250508190555080600285856040516102079291906109ad565b90815260200160405180910390205f8481526020019081526020015f205f82825461023291906109f7565b90915550506040517f05166bbaa4efa3ffa496a56b89a590e94a8582b636e2e0db76a9eec84fc961229061026d908690869086908690610a32565b60405180910390a150505050565b610283610650565b600184846040516102959291906109ad565b9081526040519081900360200190206003015460ff16156102ee5760405162461bcd60e51b8152602060048201526013602482015272506f6f6c20616c72656164792065786973747360681b60448201526064016101b2565b604051806080016040528083838080601f0160208091040260200160405190810160405280939291908181526020018383808284375f92018290525093855250505060208201819052604080830191909152600160609092018290525161035890879087906109ad565b908152604051908190036020019020815181906103759082610adc565b506020820151600182015560408083015160028301556060909201516003909101805460ff1916911515919091179055517f5c8f252a5fedef469aa8f803b357ff7b754d014713d2548230c9317fac4842449061026d908690869086908690610b97565b80516020818301810180516001825292820191909301209152805481906103ff90610a58565b80601f016020809104026020016040519081016040528092919081815260200182805461042b90610a58565b80156104765780601f1061044d57610100808354040283529160200191610476565b820191905f5260205f20905b81548152906001019060200180831161045957829003601f168201915b50505050600183015460028401546003909401549293909290915060ff1684565b5f600183836040516104aa9291906109ad565b9081526040519081900360200190206003015460ff166104dc5760405162461bcd60e51b81526004016101b2906109bc565b600183836040516104ee9291906109ad565b908152602001604051809103902060020154600184846040516105129291906109ad565b9081526020016040518091039020600101541115610583576001838360405161053c9291906109ad565b908152602001604051809103902060020154600184846040516105609291906109ad565b90815260200160405180910390206001015461057c9190610bc8565b9050610586565b505f5b92915050565b610594610650565b600183836040516105a69291906109ad565b9081526040519081900360200190206003015460ff166105d85760405162461bcd60e51b81526004016101b2906109bc565b80600184846040516105eb9291906109ad565b90815260200160405180910390206002015f82825461060a91906109f7565b90915550506040517fcf7ff497a03d859f2b1bb8846e041f9e4c5b5f3335c649f426d7441ef3cdcbc69061064390859085908590610bdb565b60405180910390a1505050565b5f546001600160a01b031633146106bf5760405162461bcd60e51b815260206004820152602d60248201527f556e617574686f72697a65643a204f6e6c792050756c7365477561726420626160448201526c18dad95b9908185b1b1bddd959609a1b60648201526084016101b2565b565b634e487b7160e01b5f52604160045260245ffd5b5f82601f8301126106e4575f5ffd5b813567ffffffffffffffff8111156106fe576106fe6106c1565b604051601f8201601f19908116603f0116810167ffffffffffffffff8111828210171561072d5761072d6106c1565b604052818152838201602001851015610744575f5ffd5b816020850160208301375f918101602001919091529392505050565b5f5f60408385031215610771575f5ffd5b823567ffffffffffffffff811115610787575f5ffd5b610793858286016106d5565b95602094909401359450505050565b5f5f83601f8401126107b2575f5ffd5b50813567ffffffffffffffff8111156107c9575f5ffd5b6020830191508360208285010111156107e0575f5ffd5b9250929050565b5f5f5f5f606085870312156107fa575f5ffd5b843567ffffffffffffffff811115610810575f5ffd5b61081c878288016107a2565b90989097506020870135966040013595509350505050565b5f5f5f5f60408587031215610847575f5ffd5b843567ffffffffffffffff81111561085d575f5ffd5b610869878288016107a2565b909550935050602085013567ffffffffffffffff811115610888575f5ffd5b610894878288016107a2565b95989497509550505050565b5f602082840312156108b0575f5ffd5b813567ffffffffffffffff8111156108c6575f5ffd5b6108d2848285016106d5565b949350505050565b608081525f8551806080840152806020880160a085015e5f60a0828501015260a0601f19601f830116840101915050846020830152836040830152821515606083015295945050505050565b5f5f60208385031215610937575f5ffd5b823567ffffffffffffffff81111561094d575f5ffd5b610959858286016107a2565b90969095509350505050565b5f5f5f60408486031215610977575f5ffd5b833567ffffffffffffffff81111561098d575f5ffd5b610999868287016107a2565b909790965060209590950135949350505050565b818382375f9101908152919050565b6020808252600d908201526c506f6f6c20696e61637469766560981b604082015260600190565b634e487b7160e01b5f52601160045260245ffd5b80820180821115610586576105866109e3565b81835281816020850137505f828201602090810191909152601f909101601f19169091010190565b606081525f610a45606083018688610a0a565b6020830194909452506040015292915050565b600181811c90821680610a6c57607f821691505b602082108103610a8a57634e487b7160e01b5f52602260045260245ffd5b50919050565b601f821115610ad757805f5260205f20601f840160051c81016020851015610ab55750805b601f840160051c820191505b81811015610ad4575f8155600101610ac1565b50505b505050565b815167ffffffffffffffff811115610af657610af66106c1565b610b0a81610b048454610a58565b84610a90565b6020601f821160018114610b3c575f8315610b255750848201515b5f19600385901b1c1916600184901b178455610ad4565b5f84815260208120601f198516915b82811015610b6b5787850151825560209485019460019092019101610b4b565b5084821015610b8857868401515f19600387901b60f8161c191681555b50505050600190811b01905550565b604081525f610baa604083018688610a0a565b8281036020840152610bbd818587610a0a565b979650505050505050565b81810381811115610586576105866109e3565b604081525f610bee604083018587610a0a565b905082602083015294935050505056fea26469706673582212206ea00a8b210d8ec49c2e1bf3319805ebf6a07bef2bab1365676d70c2b3c8b6dd64736f6c634300081c0033",
        "nonce": "0x6",
        "chainId": "0x13882"
      },
      "additionalContracts": [],
      "isFixedGasLimit": false
    },
    {
      "hash": "0x4f77416c6e05e96b3146068148f4cb12412183c1401c48164360e22286a5feff",
      "transactionType": "CALL",
      "contractName": "PulseGuardMutualPool",
      "contractAddress": "0xc02d76bdf413ebd3bd1073d3636cf37977142bfd",
      "function": "createPool(string,string)",
      "arguments": [
        "chama-nairobi-01",
        "Nairobi CBD Boda Sacco"
      ],
      "transaction": {
        "from": "0x82d1f6ebad6732065d6275b3d10b72df69da5591",
        "to": "0xc02d76bdf413ebd3bd1073d3636cf37977142bfd",
        "gas": "0x1a372",
        "value": "0x0",
        "input": "0x5ea81a320000000000000000000000000000000000000000000000000000000000000040000000000000000000000000000000000000000000000000000000000000008000000000000000000000000000000000000000000000000000000000000000106368616d612d6e6169726f62692d30310000000000000000000000000000000000000000000000000000000000000000000000000000000000000000000000164e6169726f62692043424420426f646120536163636f00000000000000000000",
        "nonce": "0x7",
        "chainId": "0x13882"
      },
      "additionalContracts": [],
      "isFixedGasLimit": false
    }
  ],
  "receipts": [
    {
      "status": "0x1",
      "cumulativeGasUsed": "0xb7671",
      "logs": [
        {
          "address": "0x0000000000000000000000000000000000001010",
          "topics": [
            "0x4dfe1bbbcf077ddc3e01291eea2d5c70c2b422b415d95645b9adcfd678cb1d63",
            "0x0000000000000000000000000000000000000000000000000000000000001010",
            "0x00000000000000000000000082d1f6ebad6732065d6275b3d10b72df69da5591",
            "0x0000000000000000000000007ee41d8a25641000661b1ef5e6ae8a00400466b0"
          ],
          "data": "0x00000000000000000000000000000000000000000000000000afc37f3990305f00000000000000000000000000000000000000000000000000e4f57321466ba00000000000000000000000000000000000000000000040251892499455b7accb000000000000000000000000000000000000000000000000003531f3e7b63b4100000000000000000000000000000000000000000000402519420d138f47dd2a",
          "blockHash": "0xe49bcb5e95a643624c15011fbb107be895625587b51d539ae385a640f660c627",
          "blockNumber": "0x23fc5b7",
          "blockTimestamp": "0x69f77ad3",
          "transactionHash": "0x4f77416c6e05e96b3146068148f4cb12412183c1401c48164360e22286a5feff",
          "transactionIndex": "0x0",
          "logIndex": "0x0",
          "removed": false
        }
      ],
      "logsBloom": "0x00000000080000000000000000000000000000000000000000000000000000000000000000000000000000000000000000008000000000000000000000000000000000000000000000000000000000800000000000000040000100000000000000000000000000000000000000040000000000000000000080000000000000000000000000000000020000000400000000000000000000000000000000000000200000000000000000000000000000000000000000000000000000000000004000000000000000000001000000000000000000400000000000100000000000000000000000000000000000000000000000000000000000000000000000100000",
      "type": "0x2",
      "transactionHash": "0x4f77416c6e05e96b3146068148f4cb12412183c1401c48164360e22286a5feff",
      "transactionIndex": "0x0",
      "blockHash": "0xe49bcb5e95a643624c15011fbb107be895625587b51d539ae385a640f660c627",
      "blockNumber": "0x23fc5b7",
      "gasUsed": "0xb7671",
      "effectiveGasPrice": "0xf55659c0e",
      "from": "0x82d1f6ebad6732065d6275b3d10b72df69da5591",
      "to": null,
      "contractAddress": "0xc02d76bdf413ebd3bd1073d3636cf37977142bfd"
    },
    {
      "status": "0x1",
      "cumulativeGasUsed": "0xca61e",
      "logs": [
        {
          "address": "0xc02d76bdf413ebd3bd1073d3636cf37977142bfd",
          "topics": [
            "0x5c8f252a5fedef469aa8f803b357ff7b754d014713d2548230c9317fac484244"
          ],
          "data": "0x0000000000000000000000000000000000000000000000000000000000000040000000000000000000000000000000000000000000000000000000000000008000000000000000000000000000000000000000000000000000000000000000106368616d612d6e6169726f62692d30310000000000000000000000000000000000000000000000000000000000000000000000000000000000000000000000164e6169726f62692043424420426f646120536163636f00000000000000000000",
          "blockHash": "0xe49bcb5e95a643624c15011fbb107be895625587b51d539ae385a640f660c627",
          "blockNumber": "0x23fc5b7",
          "blockTimestamp": "0x69f77ad3",
          "transactionHash": "0x66da892dbe42a27891c8da2db2d1035dd3b480ebceda64f169e31384f93ed905",
          "transactionIndex": "0x1",
          "logIndex": "0x1",
          "removed": false
        },
        {
          "address": "0x0000000000000000000000000000000000001010",
          "topics": [
            "0x4dfe1bbbcf077ddc3e01291eea2d5c70c2b422b415d95645b9adcfd678cb1d63",
            "0x0000000000000000000000000000000000000000000000000000000000001010",
            "0x00000000000000000000000082d1f6ebad6732065d6275b3d10b72df69da5591",
            "0x0000000000000000000000007ee41d8a25641000661b1ef5e6ae8a00400466b0"
          ],
          "data": "0x0000000000000000000000000000000000000000000000000012306ff9144be3000000000000000000000000000000000000000000000000003531f3e4e4157200000000000000000000000000000000000000000000402519420d138f47dd2a00000000000000000000000000000000000000000000000000230183ebcfc98f00000000000000000000000000000000000000000000402519543d83885c290d",
          "blockHash": "0xe49bcb5e95a643624c15011fbb107be895625587b51d539ae385a640f660c627",
          "blockNumber": "0x23fc5b7",
          "blockTimestamp": "0x69f77ad3",
          "transactionHash": "0x66da892dbe42a27891c8da2db2d1035dd3b480ebceda64f169e31384f93ed905",
          "transactionIndex": "0x1",
          "logIndex": "0x2",
          "removed": false
        }
      ],
      "logsBloom": "0x00080000080000000000000000000000000000000000000000000000000000000000000000000000000000020000000000008000000000000040000000000000000000000000000000000000000000800000000000000040000100000000000000000000000080000000000000040000000000000000000080000000000000000000000000000000020000000400000000000000000000000000000000000000200100000000000000000000000000000000000000000000000000000000004000000000000000000001000000000000000000400000000000100000000000000000000000000200000000000000000000000000000000000000000000100000",
      "type": "0x2",
      "transactionHash": "0x66da892dbe42a27891c8da2db2d1035dd3b480ebceda64f169e31384f93ed905",
      "transactionIndex": "0x1",
      "blockHash": "0xe49bcb5e95a643624c15011fbb107be895625587b51d539ae385a640f660c627",
      "blockNumber": "0x23fc5b7",
      "gasUsed": "0x12fad",
      "effectiveGasPrice": "0xf55659c0e",
      "from": "0x82d1f6ebad6732065d6275b3d10b72df69da5591",
      "to": "0xc02d76bdf413ebd3bd1073d3636cf37977142bfd",
      "contractAddress": null
    }
  ],
  "libraries": [],
  "pending": [],
  "returns": {},
  "timestamp": 1777826514186,
  "chain": 80002,
  "commit": "c5b0aaa"
}